{
  "contractName": "Registry",
  "abi": [
    {
      "anonymous": false,
      "inputs": [
        {
          "indexed": true,
          "internalType": "bytes32",
          "name": "did",
          "type": "bytes32"
        }
      ],
      "name": "DoctusCreated",
      "type": "event"
    },
    {
      "anonymous": false,
      "inputs": [
        {
          "indexed": true,
          "internalType": "bytes32",
          "name": "did",
          "type": "bytes32"
        }
      ],
      "name": "DoctusDeleted",
      "type": "event"
    },
    {
      "anonymous": false,
      "inputs": [
        {
          "indexed": true,
          "internalType": "bytes32",
          "name": "did",
          "type": "bytes32"
        }
      ],
      "name": "DoctusModified",
      "type": "event"
    },
    {
      "anonymous": false,
      "inputs": [
        {
          "indexed": true,
          "internalType": "bytes32",
          "name": "did",
          "type": "bytes32"
        },
        {
          "indexed": true,
          "internalType": "bytes32",
          "name": "sid",
          "type": "bytes32"
        },
        {
          "indexed": false,
          "internalType": "bytes",
          "name": "metadataURI",
          "type": "bytes"
        }
      ],
      "name": "ServiceCreated",
      "type": "event"
    },
    {
      "anonymous": false,
      "inputs": [
        {
          "indexed": true,
          "internalType": "bytes32",
          "name": "did",
          "type": "bytes32"
        },
        {
          "indexed": true,
          "internalType": "bytes32",
          "name": "sid",
          "type": "bytes32"
        }
      ],
      "name": "ServiceDeleted",
      "type": "event"
    },
    {
      "anonymous": false,
      "inputs": [
        {
          "indexed": true,
          "internalType": "bytes32",
          "name": "did",
          "type": "bytes32"
        },
        {
          "indexed": true,
          "internalType": "bytes32",
          "name": "sid",
          "type": "bytes32"
        }
      ],
      "name": "ServiceTagsModified",
      "type": "event"
    },
    {
      "anonymous": false,
      "inputs": [
        {
          "indexed": true,
          "internalType": "bytes32",
          "name": "did",
          "type": "bytes32"
        },
        {
          "indexed": true,
          "internalType": "bytes32",
          "name": "sid",
          "type": "bytes32"
        },
        {
          "indexed": false,
          "internalType": "bytes",
          "name": "metadataURI",
          "type": "bytes"
        }
      ],
      "name": "ServiveMetadataModified",
      "type": "event"
    },
    {
      "inputs": [
        {
          "internalType": "bytes4",
          "name": "interfaceId",
          "type": "bytes4"
        }
      ],
      "name": "supportsInterface",
      "outputs": [
        {
          "internalType": "bool",
          "name": "",
          "type": "bool"
        }
      ],
      "stateMutability": "view",
      "type": "function",
      "constant": true
    },
    {
      "inputs": [
        {
          "internalType": "bytes32",
          "name": "did",
          "type": "bytes32"
        },
        {
          "internalType": "bytes",
          "name": "metadataURI",
          "type": "bytes"
        },
        {
          "internalType": "address[]",
          "name": "members",
          "type": "address[]"
        }
      ],
      "name": "createDoctus",
      "outputs": [],
      "stateMutability": "nonpayable",
      "type": "function"
    },
    {
      "inputs": [
        {
          "internalType": "bytes32",
          "name": "did",
          "type": "bytes32"
        },
        {
          "internalType": "address",
          "name": "newOwner",
          "type": "address"
        }
      ],
      "name": "changeDoctusOwner",
      "outputs": [],
      "stateMutability": "nonpayable",
      "type": "function"
    },
    {
      "inputs": [
        {
          "internalType": "bytes32",
          "name": "did",
          "type": "bytes32"
        },
        {
          "internalType": "bytes",
          "name": "metadataURI",
          "type": "bytes"
        }
      ],
      "name": "changeDoctusMetadataURI",
      "outputs": [],
      "stateMutability": "nonpayable",
      "type": "function"
    },
    {
      "inputs": [
        {
          "internalType": "bytes32",
          "name": "did",
          "type": "bytes32"
        },
        {
          "internalType": "address[]",
          "name": "newMembers",
          "type": "address[]"
        }
      ],
      "name": "addDoctusMembers",
      "outputs": [],
      "stateMutability": "nonpayable",
      "type": "function"
    },
    {
      "inputs": [
        {
          "internalType": "bytes32",
          "name": "did",
          "type": "bytes32"
        },
        {
          "internalType": "address[]",
          "name": "members",
          "type": "address[]"
        }
      ],
      "name": "removeDoctusMembers",
      "outputs": [],
      "stateMutability": "nonpayable",
      "type": "function"
    },
    {
      "inputs": [
        {
          "internalType": "bytes32",
          "name": "did",
          "type": "bytes32"
        }
      ],
      "name": "deleteDoctus",
      "outputs": [],
      "stateMutability": "nonpayable",
      "type": "function"
    },
    {
      "inputs": [
        {
          "internalType": "bytes32",
          "name": "did",
          "type": "bytes32"
        },
        {
          "internalType": "bytes32",
          "name": "sid",
          "type": "bytes32"
        },
        {
          "internalType": "bytes",
          "name": "metadataURI",
          "type": "bytes"
        }
      ],
      "name": "createService",
      "outputs": [],
      "stateMutability": "nonpayable",
      "type": "function"
    },
    {
      "inputs": [
        {
          "internalType": "bytes32",
          "name": "did",
          "type": "bytes32"
        },
        {
          "internalType": "bytes32",
          "name": "sid",
          "type": "bytes32"
        },
        {
          "internalType": "bytes",
          "name": "metadataURI",
          "type": "bytes"
        }
      ],
      "name": "updateService",
      "outputs": [],
      "stateMutability": "nonpayable",
      "type": "function"
    },
    {
      "inputs": [
        {
          "internalType": "bytes32",
          "name": "did",
          "type": "bytes32"
        },
        {
          "internalType": "bytes32",
          "name": "sid",
          "type": "bytes32"
        }
      ],
      "name": "deleteService",
      "outputs": [],
      "stateMutability": "nonpayable",
      "type": "function"
    },
    {
      "inputs": [],
      "name": "listDoctuses",
      "outputs": [
        {
          "internalType": "bytes32[]",
          "name": "dids",
          "type": "bytes32[]"
        }
      ],
      "stateMutability": "view",
      "type": "function",
      "constant": true
    },
    {
      "inputs": [
        {
          "internalType": "bytes32",
          "name": "did",
          "type": "bytes32"
        }
      ],
      "name": "getDoctusById",
      "outputs": [
        {
          "internalType": "bool",
          "name": "found",
          "type": "bool"
        },
        {
          "internalType": "bytes32",
          "name": "id",
          "type": "bytes32"
        },
        {
          "internalType": "bytes",
          "name": "metadataURI",
          "type": "bytes"
        },
        {
          "internalType": "address",
          "name": "owner",
          "type": "address"
        },
        {
          "internalType": "address[]",
          "name": "members",
          "type": "address[]"
        },
        {
          "internalType": "bytes32[]",
          "name": "services",
          "type": "bytes32[]"
        }
      ],
      "stateMutability": "view",
      "type": "function",
      "constant": true
    },
    {
      "inputs": [
        {
          "internalType": "bytes32",
          "name": "did",
          "type": "bytes32"
        }
      ],
      "name": "getServicesForDoctus",
      "outputs": [
        {
          "internalType": "bool",
          "name": "found",
          "type": "bool"
        },
        {
          "internalType": "bytes32[]",
          "name": "services",
          "type": "bytes32[]"
        }
      ],
      "stateMutability": "view",
      "type": "function",
      "constant": true
    },
    {
      "inputs": [
        {
          "internalType": "bytes32",
          "name": "did",
          "type": "bytes32"
        },
        {
          "internalType": "bytes32",
          "name": "sid",
          "type": "bytes32"
        }
      ],
      "name": "getServiceById",
      "outputs": [
        {
          "internalType": "bool",
          "name": "found",
          "type": "bool"
        },
        {
          "internalType": "bytes32",
          "name": "id",
          "type": "bytes32"
        },
        {
          "internalType": "bytes",
          "name": "metadataURI",
          "type": "bytes"
        }
      ],
      "stateMutability": "view",
      "type": "function",
      "constant": true
    }
  ],
  "bytecode": "0x608060405234801561000f575f80fd5b506129d18061001d5f395ff3fe608060405234801561000f575f80fd5b50600436106100e8575f3560e01c80636107e9361161008a57806393d8981e1161006457806393d8981e14610233578063bc050b0c1461024f578063d204e42b14610281578063fa4f646f1461029d576100e8565b80636107e936146101df5780637411f7c7146101fb5780638844e3e614610217576100e8565b806333e2e87c116100c657806333e2e87c146101545780633d77febc14610172578063413ace11146101a75780634ca54fc0146101c3576100e8565b806301ffc9a7146100ec57806306247fe51461011c57806318c9b28914610138575b5f80fd5b61010660048036038101906101019190611b11565b6102ce565b6040516101139190611b56565b60405180910390f35b61013660048036038101906101319190611bfc565b610347565b005b610152600480360381019061014d9190611cf0565b6103df565b005b61015c610537565b6040516101699190611e38565b60405180910390f35b61018c60048036038101906101879190611e58565b61058c565b60405161019e96959493929190611fe2565b60405180910390f35b6101c160048036038101906101bc9190612056565b6107aa565b005b6101dd60048036038101906101d891906120b3565b61083c565b005b6101f960048036038101906101f49190612056565b6109a4565b005b610215600480360381019061021091906120b3565b610a36565b005b610231600480360381019061022c9190612124565b610acf565b005b61024d60048036038101906102489190612162565b610b2d565b005b61026960048036038101906102649190612124565b610b98565b604051610278939291906121bf565b60405180910390f35b61029b60048036038101906102969190611e58565b610cda565b005b6102b760048036038101906102b29190611e58565b610f77565b6040516102c59291906121fb565b60405180910390f35b5f7f8723b43c000000000000000000000000000000000000000000000000000000007bffffffffffffffffffffffffffffffffffffffffffffffffffffffff1916827bffffffffffffffffffffffffffffffffffffffffffffffffffffffff19161480610340575061033f8261100b565b5b9050919050565b610352826001611074565b61035c825f611132565b8060015f8481526020019081526020015f206002015f6101000a81548173ffffffffffffffffffffffffffffffffffffffff021916908373ffffffffffffffffffffffffffffffffffffffff160217905550817f50d13d4fb7f8527401f4a65436e8b6a82d46ba04fffbf26bca30eb57d32da23f60405160405180910390a25050565b6103e9855f611074565b8460015f8781526020019081526020015f205f0181905550838360015f8881526020019081526020015f206001019182610424929190612463565b503360015f8781526020019081526020015f206002015f6101000a81548173ffffffffffffffffffffffffffffffffffffffff021916908373ffffffffffffffffffffffffffffffffffffffff1602179055505f8054905060015f8781526020019081526020015f20600701819055505f85908060018154018082558091505060019003905f5260205f20015f9091909190915055610503858383808060200260200160405190810160405280939291908181526020018383602002808284375f81840152601f19601f82011690508083019250505050505050611239565b847f1a3f8193fa478a101603c64a06cb9673e46fddb8cf040f72865ca387fb19406960405160405180910390a25050505050565b60605f80548060200260200160405190810160405280929190818152602001828054801561058257602002820191905f5260205f20905b81548152602001906001019080831161056e575b5050505050905090565b5f8060605f6060805f801b60015f8981526020019081526020015f205f0154036105b8575f95506107a1565b6001955060015f8881526020019081526020015f205f0154945060015f8881526020019081526020015f2060010180546105f19061228d565b80601f016020809104026020016040519081016040528092919081815260200182805461061d9061228d565b80156106685780601f1061063f57610100808354040283529160200191610668565b820191905f5260205f20905b81548152906001019060200180831161064b57829003601f168201915b5050505050935060015f8881526020019081526020015f206002015f9054906101000a900473ffffffffffffffffffffffffffffffffffffffff16925060015f8881526020019081526020015f2060030180548060200260200160405190810160405280929190818152602001828054801561073657602002820191905f5260205f20905b815f9054906101000a900473ffffffffffffffffffffffffffffffffffffffff1673ffffffffffffffffffffffffffffffffffffffff16815260200190600101908083116106ed575b5050505050915060015f8881526020019081526020015f2060050180548060200260200160405190810160405280929190818152602001828054801561079957602002820191905f5260205f20905b815481526020019060010190808311610785575b505050505090505b91939550919395565b6107b5836001611074565b6107c0836001611132565b61080a838383808060200260200160405190810160405280939291908181526020018383602002808284375f81840152601f19601f820116905080830192505050505050506113de565b827f50d13d4fb7f8527401f4a65436e8b6a82d46ba04fffbf26bca30eb57d32da23f60405160405180910390a2505050565b610847846001611074565b610852846001611132565b61085d84845f61176f565b6108656119e3565b83815f01818152505082828080601f0160208091040260200160405190810160405280939291908181526020018383808284375f81840152601f19601f82011690508083019250505050505050816020018190525060015f8681526020019081526020015f20600501805490508160400181815250508060015f8781526020019081526020015f206006015f8681526020019081526020015f205f820151815f0155602082015181600101908161091c9190612530565b506040820151816002015590505060015f8681526020019081526020015f2060050184908060018154018082558091505060019003905f5260205f20015f909190919091505583857f3229c7118d95880b1bb8abc6231f47f1a63d7b1e7e22fbd91a8ccffc9fa75df98585604051610995929190612639565b60405180910390a35050505050565b6109af836001611074565b6109ba836001611132565b610a04838383808060200260200160405190810160405280939291908181526020018383602002808284375f81840152601f19601f82011690508083019250505050505050611239565b827f50d13d4fb7f8527401f4a65436e8b6a82d46ba04fffbf26bca30eb57d32da23f60405160405180910390a2505050565b610a41846001611074565b610a4c846001611132565b610a588484600161176f565b818160015f8781526020019081526020015f206006015f8681526020019081526020015f206001019182610a8d929190612463565b5082847f6ab4031de503598fb1d30ff821ab0311d24fde0fad881f25e0dac1acced985028484604051610ac1929190612639565b60405180910390a350505050565b610ada826001611074565b610ae5826001611132565b610af18282600161176f565b610afb8282611852565b80827f3caed2ddcd24bae20b0075a02d974ba3a229dace98271af93ce8c8f3ebd9d27260405160405180910390a35050565b610b38836001611074565b610b42835f611132565b818160015f8681526020019081526020015f206001019182610b65929190612463565b50827f50d13d4fb7f8527401f4a65436e8b6a82d46ba04fffbf26bca30eb57d32da23f60405160405180910390a2505050565b5f8060605f801b60015f8781526020019081526020015f205f015403610bc0575f9250610cd3565b5f801b60015f8781526020019081526020015f206006015f8681526020019081526020015f205f015403610bf6575f9250610cd2565b6001925060015f8681526020019081526020015f206006015f8581526020019081526020015f205f0154915060015f8681526020019081526020015f206006015f8581526020019081526020015f206001018054610c539061228d565b80601f0160208091040260200160405190810160405280929190818152602001828054610c7f9061228d565b8015610cca5780601f10610ca157610100808354040283529160200191610cca565b820191905f5260205f20905b815481529060010190602001808311610cad57829003601f168201915b505050505090505b5b9250925092565b610ce5816001611074565b610cef815f611132565b5f60015f8381526020019081526020015f206005018054905090505b5f811115610d6a57610d578260015f8581526020019081526020015f20600501600184610d389190612688565b81548110610d4957610d486126bb565b5b905f5260205f200154611852565b8080610d62906126e8565b915050610d0b565b50610e0a8160015f8481526020019081526020015f20600301805480602002602001604051908101604052809291908181526020018280548015610e0057602002820191905f5260205f20905b815f9054906101000a900473ffffffffffffffffffffffffffffffffffffffff1673ffffffffffffffffffffffffffffffffffffffff1681526020019060010190808311610db7575b50505050506113de565b5f60015f8381526020019081526020015f206007015490505f8060015f80549050610e359190612688565b81548110610e4657610e456126bb565b5b905f5260205f2001549050805f8381548110610e6557610e646126bb565b5b905f5260205f20015414610ead57805f8381548110610e8757610e866126bb565b5b905f5260205f2001819055508160015f8381526020019081526020015f20600701819055505b5f805480610ebe57610ebd61270f565b5b600190038181905f5260205f20015f9055905560015f8481526020019081526020015f205f8082015f9055600182015f610ef89190611a05565b600282015f6101000a81549073ffffffffffffffffffffffffffffffffffffffff0219169055600382015f610f2d9190611a42565b600582015f610f3c9190611a60565b600782015f90555050827fc8d14ab4cbe291a69180a78fe400084f89c0f5dd42d8142903f2cb234d52ebdf60405160405180910390a2505050565b5f60605f801b60015f8581526020019081526020015f205f015403610f9e575f9150611006565b6001915060015f8481526020019081526020015f20600501805480602002602001604051908101604052809291908181526020018280548015610ffe57602002820191905f5260205f20905b815481526020019060010190808311610fea575b505050505090505b915091565b5f7f01ffc9a7000000000000000000000000000000000000000000000000000000007bffffffffffffffffffffffffffffffffffffffffffffffffffffffff1916827bffffffffffffffffffffffffffffffffffffffffffffffffffffffff1916149050919050565b80156110d6575f801b60015f8481526020019081526020015f205f0154036110d1576040517f08c379a00000000000000000000000000000000000000000000000000000000081526004016110c890612796565b60405180910390fd5b61112e565b5f801b60015f8481526020019081526020015f205f01541461112d576040517f08c379a0000000000000000000000000000000000000000000000000000000008152600401611124906127fe565b60405180910390fd5b5b5050565b60015f8381526020019081526020015f206002015f9054906101000a900473ffffffffffffffffffffffffffffffffffffffff1673ffffffffffffffffffffffffffffffffffffffff163373ffffffffffffffffffffffffffffffffffffffff1614806111f657508080156111f557505f60015f8481526020019081526020015f206004015f3373ffffffffffffffffffffffffffffffffffffffff1673ffffffffffffffffffffffffffffffffffffffff1681526020019081526020015f2054115b5b611235576040517f08c379a000000000000000000000000000000000000000000000000000000000815260040161122c90612866565b60405180910390fd5b5050565b5f5b81518110156113d9575f60015f8581526020019081526020015f206004015f84848151811061126d5761126c6126bb565b5b602002602001015173ffffffffffffffffffffffffffffffffffffffff1673ffffffffffffffffffffffffffffffffffffffff1681526020019081526020015f2054036113c65760015f8481526020019081526020015f206003018282815181106112db576112da6126bb565b5b6020026020010151908060018154018082558091505060019003905f5260205f20015f9091909190916101000a81548173ffffffffffffffffffffffffffffffffffffffff021916908373ffffffffffffffffffffffffffffffffffffffff16021790555060015f8481526020019081526020015f206003018054905060015f8581526020019081526020015f206004015f8484815181106113805761137f6126bb565b5b602002602001015173ffffffffffffffffffffffffffffffffffffffff1673ffffffffffffffffffffffffffffffffffffffff1681526020019081526020015f20819055505b80806113d190612884565b91505061123b565b505050565b5f5b815181101561176a575f60015f8581526020019081526020015f206004015f848481518110611412576114116126bb565b5b602002602001015173ffffffffffffffffffffffffffffffffffffffff1673ffffffffffffffffffffffffffffffffffffffff1681526020019081526020015f205414611757575f60015f8581526020019081526020015f206004015f848481518110611482576114816126bb565b5b602002602001015173ffffffffffffffffffffffffffffffffffffffff1673ffffffffffffffffffffffffffffffffffffffff1681526020019081526020015f205490505f60015f8681526020019081526020015f206003016001805f8881526020019081526020015f20600301805490506114fe9190612688565b8154811061150f5761150e6126bb565b5b905f5260205f20015f9054906101000a900473ffffffffffffffffffffffffffffffffffffffff1690508073ffffffffffffffffffffffffffffffffffffffff1660015f8781526020019081526020015f206003016001846115719190612688565b81548110611582576115816126bb565b5b905f5260205f20015f9054906101000a900473ffffffffffffffffffffffffffffffffffffffff1673ffffffffffffffffffffffffffffffffffffffff1614611692578060015f8781526020019081526020015f206003016001846115e79190612688565b815481106115f8576115f76126bb565b5b905f5260205f20015f6101000a81548173ffffffffffffffffffffffffffffffffffffffff021916908373ffffffffffffffffffffffffffffffffffffffff1602179055508160015f8781526020019081526020015f206004015f8373ffffffffffffffffffffffffffffffffffffffff1673ffffffffffffffffffffffffffffffffffffffff1681526020019081526020015f20819055505b60015f8681526020019081526020015f206003018054806116b6576116b561270f565b5b600190038181905f5260205f20015f6101000a81549073ffffffffffffffffffffffffffffffffffffffff0219169055905560015f8681526020019081526020015f206004015f8585815181106117105761170f6126bb565b5b602002602001015173ffffffffffffffffffffffffffffffffffffffff1673ffffffffffffffffffffffffffffffffffffffff1681526020019081526020015f205f905550505b808061176290612884565b9150506113e0565b505050565b80156117e3575f801b60015f8581526020019081526020015f206006015f8481526020019081526020015f205f0154036117de576040517f08c379a00000000000000000000000000000000000000000000000000000000081526004016117d590612915565b60405180910390fd5b61184d565b5f801b60015f8581526020019081526020015f206006015f8481526020019081526020015f205f01541461184c576040517f08c379a00000000000000000000000000000000000000000000000000000000081526004016118439061297d565b60405180910390fd5b5b505050565b5f60015f8481526020019081526020015f206006015f8381526020019081526020015f206002015490505f60015f8581526020019081526020015f206005016001805f8781526020019081526020015f20600501805490506118b49190612688565b815481106118c5576118c46126bb565b5b905f5260205f20015490508060015f8681526020019081526020015f2060050183815481106118f7576118f66126bb565b5b905f5260205f20015414611964578060015f8681526020019081526020015f20600501838154811061192c5761192b6126bb565b5b905f5260205f2001819055508160015f8681526020019081526020015f206006015f8381526020019081526020015f20600201819055505b60015f8581526020019081526020015f206005018054806119885761198761270f565b5b600190038181905f5260205f20015f9055905560015f8581526020019081526020015f206006015f8481526020019081526020015f205f8082015f9055600182015f6119d49190611a05565b600282015f9055505050505050565b60405180606001604052805f8019168152602001606081526020015f81525090565b508054611a119061228d565b5f825580601f10611a225750611a3f565b601f0160209004905f5260205f2090810190611a3e9190611a7e565b5b50565b5080545f8255905f5260205f2090810190611a5d9190611a7e565b50565b5080545f8255905f5260205f2090810190611a7b9190611a99565b50565b5b80821115611a95575f815f905550600101611a7f565b5090565b5b80821115611ab0575f815f905550600101611a9a565b5090565b5f80fd5b5f80fd5b5f7fffffffff0000000000000000000000000000000000000000000000000000000082169050919050565b611af081611abc565b8114611afa575f80fd5b50565b5f81359050611b0b81611ae7565b92915050565b5f60208284031215611b2657611b25611ab4565b5b5f611b3384828501611afd565b91505092915050565b5f8115159050919050565b611b5081611b3c565b82525050565b5f602082019050611b695f830184611b47565b92915050565b5f819050919050565b611b8181611b6f565b8114611b8b575f80fd5b50565b5f81359050611b9c81611b78565b92915050565b5f73ffffffffffffffffffffffffffffffffffffffff82169050919050565b5f611bcb82611ba2565b9050919050565b611bdb81611bc1565b8114611be5575f80fd5b50565b5f81359050611bf681611bd2565b92915050565b5f8060408385031215611c1257611c11611ab4565b5b5f611c1f85828601611b8e565b9250506020611c3085828601611be8565b9150509250929050565b5f80fd5b5f80fd5b5f80fd5b5f8083601f840112611c5b57611c5a611c3a565b5b8235905067ffffffffffffffff811115611c7857611c77611c3e565b5b602083019150836001820283011115611c9457611c93611c42565b5b9250929050565b5f8083601f840112611cb057611caf611c3a565b5b8235905067ffffffffffffffff811115611ccd57611ccc611c3e565b5b602083019150836020820283011115611ce957611ce8611c42565b5b9250929050565b5f805f805f60608688031215611d0957611d08611ab4565b5b5f611d1688828901611b8e565b955050602086013567ffffffffffffffff811115611d3757611d36611ab8565b5b611d4388828901611c46565b9450945050604086013567ffffffffffffffff811115611d6657611d65611ab8565b5b611d7288828901611c9b565b92509250509295509295909350565b5f81519050919050565b5f82825260208201905092915050565b5f819050602082019050919050565b611db381611b6f565b82525050565b5f611dc48383611daa565b60208301905092915050565b5f602082019050919050565b5f611de682611d81565b611df08185611d8b565b9350611dfb83611d9b565b805f5b83811015611e2b578151611e128882611db9565b9750611e1d83611dd0565b925050600181019050611dfe565b5085935050505092915050565b5f6020820190508181035f830152611e508184611ddc565b905092915050565b5f60208284031215611e6d57611e6c611ab4565b5b5f611e7a84828501611b8e565b91505092915050565b611e8c81611b6f565b82525050565b5f81519050919050565b5f82825260208201905092915050565b5f5b83811015611ec9578082015181840152602081019050611eae565b5f8484015250505050565b5f601f19601f8301169050919050565b5f611eee82611e92565b611ef88185611e9c565b9350611f08818560208601611eac565b611f1181611ed4565b840191505092915050565b611f2581611bc1565b82525050565b5f81519050919050565b5f82825260208201905092915050565b5f819050602082019050919050565b611f5d81611bc1565b82525050565b5f611f6e8383611f54565b60208301905092915050565b5f602082019050919050565b5f611f9082611f2b565b611f9a8185611f35565b9350611fa583611f45565b805f5b83811015611fd5578151611fbc8882611f63565b9750611fc783611f7a565b925050600181019050611fa8565b5085935050505092915050565b5f60c082019050611ff55f830189611b47565b6120026020830188611e83565b81810360408301526120148187611ee4565b90506120236060830186611f1c565b81810360808301526120358185611f86565b905081810360a08301526120498184611ddc565b9050979650505050505050565b5f805f6040848603121561206d5761206c611ab4565b5b5f61207a86828701611b8e565b935050602084013567ffffffffffffffff81111561209b5761209a611ab8565b5b6120a786828701611c9b565b92509250509250925092565b5f805f80606085870312156120cb576120ca611ab4565b5b5f6120d887828801611b8e565b94505060206120e987828801611b8e565b935050604085013567ffffffffffffffff81111561210a57612109611ab8565b5b61211687828801611c46565b925092505092959194509250565b5f806040838503121561213a57612139611ab4565b5b5f61214785828601611b8e565b925050602061215885828601611b8e565b9150509250929050565b5f805f6040848603121561217957612178611ab4565b5b5f61218686828701611b8e565b935050602084013567ffffffffffffffff8111156121a7576121a6611ab8565b5b6121b386828701611c46565b92509250509250925092565b5f6060820190506121d25f830186611b47565b6121df6020830185611e83565b81810360408301526121f18184611ee4565b9050949350505050565b5f60408201905061220e5f830185611b47565b81810360208301526122208184611ddc565b90509392505050565b5f82905092915050565b7f4e487b71000000000000000000000000000000000000000000000000000000005f52604160045260245ffd5b7f4e487b71000000000000000000000000000000000000000000000000000000005f52602260045260245ffd5b5f60028204905060018216806122a457607f821691505b6020821081036122b7576122b6612260565b5b50919050565b5f819050815f5260205f209050919050565b5f6020601f8301049050919050565b5f82821b905092915050565b5f600883026123197fffffffffffffffffffffffffffffffffffffffffffffffffffffffffffffffff826122de565b61232386836122de565b95508019841693508086168417925050509392505050565b5f819050919050565b5f819050919050565b5f61236761236261235d8461233b565b612344565b61233b565b9050919050565b5f819050919050565b6123808361234d565b61239461238c8261236e565b8484546122ea565b825550505050565b5f90565b6123a861239c565b6123b3818484612377565b505050565b5b818110156123d6576123cb5f826123a0565b6001810190506123b9565b5050565b601f82111561241b576123ec816122bd565b6123f5846122cf565b81016020851015612404578190505b612418612410856122cf565b8301826123b8565b50505b505050565b5f82821c905092915050565b5f61243b5f1984600802612420565b1980831691505092915050565b5f612453838361242c565b9150826002028217905092915050565b61246d8383612229565b67ffffffffffffffff81111561248657612485612233565b5b612490825461228d565b61249b8282856123da565b5f601f8311600181146124c8575f84156124b6578287013590505b6124c08582612448565b865550612527565b601f1984166124d6866122bd565b5f5b828110156124fd578489013582556001820191506020850194506020810190506124d8565b8683101561251a5784890135612516601f89168261242c565b8355505b6001600288020188555050505b50505050505050565b61253982611e92565b67ffffffffffffffff81111561255257612551612233565b5b61255c825461228d565b6125678282856123da565b5f60209050601f831160018114612598575f8415612586578287015190505b6125908582612448565b8655506125f7565b601f1984166125a6866122bd565b5f5b828110156125cd578489015182556001820191506020850194506020810190506125a8565b868310156125ea57848901516125e6601f89168261242c565b8355505b6001600288020188555050505b505050505050565b828183375f83830152505050565b5f6126188385611e9c565b93506126258385846125ff565b61262e83611ed4565b840190509392505050565b5f6020820190508181035f83015261265281848661260d565b90509392505050565b7f4e487b71000000000000000000000000000000000000000000000000000000005f52601160045260245ffd5b5f6126928261233b565b915061269d8361233b565b92508282039050818111156126b5576126b461265b565b5b92915050565b7f4e487b71000000000000000000000000000000000000000000000000000000005f52603260045260245ffd5b5f6126f28261233b565b91505f82036127045761270361265b565b5b600182039050919050565b7f4e487b71000000000000000000000000000000000000000000000000000000005f52603160045260245ffd5b5f82825260208201905092915050565b7f446f6374757320646f6573206e6f7420657869737421000000000000000000005f82015250565b5f61278060168361273c565b915061278b8261274c565b602082019050919050565b5f6020820190508181035f8301526127ad81612774565b9050919050565b7f446f6374757320616c72656164792065786973747321000000000000000000005f82015250565b5f6127e860168361273c565b91506127f3826127b4565b602082019050919050565b5f6020820190508181035f830152612815816127dc565b9050919050565b7f556e617574686f72697a6564206f7065726174696f6e210000000000000000005f82015250565b5f61285060178361273c565b915061285b8261281c565b602082019050919050565b5f6020820190508181035f83015261287d81612844565b9050919050565b5f61288e8261233b565b91507fffffffffffffffffffffffffffffffffffffffffffffffffffffffffffffffff82036128c0576128bf61265b565b5b600182019050919050565b7f5365727669636520646f6573206e6f74206578697374210000000000000000005f82015250565b5f6128ff60178361273c565b915061290a826128cb565b602082019050919050565b5f6020820190508181035f83015261292c816128f3565b9050919050565b7f5365727669636520616c726561647920657869737473210000000000000000005f82015250565b5f61296760178361273c565b915061297282612933565b602082019050919050565b5f6020820190508181035f8301526129948161295b565b905091905056fea264697066735822122002e073063abda7ef181947b711005f8ae85d2ec7be9db187f240290b3dcd638464736f6c63430008150033",
  "immutableReferences": {},
  "source": "// SPDX-License-Identifier: MIT\n\npragma solidity >=0.7.0 <0.9.0;\n\nimport \"@openzeppelin/contracts/utils/introspection/ERC165.sol\";\nimport \"./IRegistry.sol\";\n\ncontract Registry is ERC165, IRegistry {\n\n    struct DoctusModel{\n        bytes32 did;\n        bytes metadataURI;\n        address owner;\n\n        // memberKeys[n-1] = Address\n        // members[Address] = n\n        // n == 0 => given address is not a member\n        address[] memberKeys;\n        mapping(address => uint) members;\n\n        bytes32[] serviceKeys;\n        mapping(bytes32 => ServiceModel) services;\n\n        uint index;\n    }\n\n    struct ServiceModel{\n        bytes32 sid;\n        bytes metadataURI;\n\n        uint index;\n    }\n\n    bytes32[] doctusKeys;\n    mapping(bytes32 => DoctusModel) doctuses;\n\n    // constructor() {\n    //     // Registering the interface\n    //     _registerInterface(type(IRegistry).interfaceId);\n    // }\n\n    /**\n     * @dev Override function from ERC-165\n     */\n    function supportsInterface(bytes4 interfaceId) public view virtual override(ERC165) returns (bool) {\n        return interfaceId == type(IRegistry).interfaceId || super.supportsInterface(interfaceId);\n    }\n\n\n    /**\n     * @dev Function to check the authorization before performing operation\n     *\n     * @param did ID of the Doctus\n     * @param membersAllowed if false, only the owner is allowed, if true members also allowed\n     */\n    function requireAuthorization(bytes32 did, bool membersAllowed) internal view {\n        require(msg.sender == doctuses[did].owner || (membersAllowed && doctuses[did].members[msg.sender] > 0),\n                \"Unauthorized operation!\");\n    }\n\n\n    /**\n     * @dev Function to check whether Doctus exists or not\n     *\n     * @param did ID of the Doctus\n     * @param exists if true Doctus should exist, if false Doctus should not exist\n     */\n    function requireDoctusExistOrNot(bytes32 did, bool exists) internal view {\n        if (exists){\n            require(doctuses[did].did != bytes32(0x0), \"Doctus does not exist!\");\n        }else{\n            require(doctuses[did].did == bytes32(0x0), \"Doctus already exists!\");\n        }\n    }\n\n\n    /**\n     * @dev Function to check the Service exists or not\n     *\n     * @param did ID of the Doctus\n     * @param sid ID of the Service\n     * @param exists if true the Service should exist, if false the Service should not exist\n     */\n    function requireServiceExistOrNot(bytes32 did, bytes32 sid, bool exists) internal view{\n        if (exists){\n            require(doctuses[did].services[sid].sid != bytes32(0x0), \"Service does not exist!\");\n        }else{\n            require(doctuses[did].services[sid].sid == bytes32(0x0), \"Service already exists!\");\n        }\n    }\n\n    function createDoctus(bytes32 did, bytes calldata metadataURI, address[] calldata members) external {\n        requireDoctusExistOrNot(did, false);\n\n        // DoctusModel memory doctus;\n        // doctuses[did] = doctus;\n        doctuses[did].did = did;\n        doctuses[did].metadataURI = metadataURI;\n        doctuses[did].owner = msg.sender;\n        doctuses[did].index = doctusKeys.length;\n        doctusKeys.push(did);\n        addDoctusMembersInternal(did, members);\n\n        emit DoctusCreated(did);\n    }\n\n    function changeDoctusOwner(bytes32 did, address newOwner) external{\n        requireDoctusExistOrNot(did, true);\n        requireAuthorization(did, false);\n\n        doctuses[did].owner = newOwner;\n        emit DoctusModified(did);\n    }\n\n    function changeDoctusMetadataURI(bytes32 did, bytes calldata metadataURI) external{\n        requireDoctusExistOrNot(did, true);\n        requireAuthorization(did, false);\n\n        doctuses[did].metadataURI = metadataURI;\n        emit DoctusModified(did);\n    }\n\n    function addDoctusMembersInternal(bytes32 did, address[] memory newMembers) internal {\n        for (uint i = 0; i < newMembers.length; i++) {\n            if (doctuses[did].members[newMembers[i]] == 0) {\n                doctuses[did].memberKeys.push(newMembers[i]);\n                doctuses[did].members[newMembers[i]] = doctuses[did].memberKeys.length;\n            }\n        }\n    }\n\n    function addDoctusMembers(bytes32 did, address[] calldata newMembers) external{\n        requireDoctusExistOrNot(did, true);\n        requireAuthorization(did, true);\n\n        addDoctusMembersInternal(did, newMembers);\n        emit DoctusModified(did);\n    }\n\n    /**\n     * @dev Internal function to perform members removal\n     *\n     * @param did ID of the Doctus\n     * @param membersToRemove Array of member addresses to remove\n     */\n    function removeDoctusMembersInternal(bytes32 did, address[] memory membersToRemove) internal{\n        for (uint i = 0; i < membersToRemove.length; i++){\n            if (doctuses[did].members[membersToRemove[i]] != 0){\n\n                // Explanation of deletion:\n                // Goal: Pop the memberKeys array (stack), so the last item will be lost\n                //       Then delete the member from members mapping\n                //\n                // How to: \n                //         1. Define the index of member\n                uint indexToRemove = doctuses[did].members[membersToRemove[i]];\n                //         2. Define the last item from the stack\n                address lastMember = doctuses[did].memberKeys[doctuses[did].memberKeys.length - 1];\n\n                // Steps 3 and 4 are not needed if the member to remove is already at the last in the list\n                if (doctuses[did].memberKeys[indexToRemove -1] != lastMember){\n                    //     3. Change the position of last item to the position of member to be deleted\n                    //        At this step, lastMember is available at [indexToRemove -1] and also last position\n                    //        Duplicate does not matter, since the last item will be popped\n                    doctuses[did].memberKeys[indexToRemove -1] = lastMember;\n                    //     4. Update the index of lastMember to the new position\n                    doctuses[did].members[lastMember] = indexToRemove;\n                }\n\n                //         5. Pop the stack (last item will be deleted)\n                doctuses[did].memberKeys.pop();\n                //         6. Delete the member from mapping\n                delete doctuses[did].members[membersToRemove[i]];\n            }\n        }\n    }\n\n    function removeDoctusMembers(bytes32 did, address[] calldata members) external{\n        requireDoctusExistOrNot(did, true);\n        requireAuthorization(did, true);\n\n        removeDoctusMembersInternal(did, members);\n\n        emit DoctusModified(did);\n    }\n\n    function deleteDoctus(bytes32 did) external{\n        requireDoctusExistOrNot(did, true);\n        requireAuthorization(did, false);\n\n        for (uint i = doctuses[did].serviceKeys.length; i > 0; i--){\n            deleteServiceInternal(did, doctuses[did].serviceKeys[i-1]);\n        }\n\n        removeDoctusMembersInternal(did, doctuses[did].memberKeys);\n\n        uint indexToDelete = doctuses[did].index;\n        bytes32 lastDoctus = doctusKeys[doctusKeys.length - 1];\n\n        if (doctusKeys[indexToDelete] != lastDoctus){\n            doctusKeys[indexToDelete] = lastDoctus;\n            doctuses[lastDoctus].index = indexToDelete;\n        }\n\n        doctusKeys.pop();\n        delete doctuses[did];\n\n        emit DoctusDeleted(did);\n    }\n\n    function createService(bytes32 did, bytes32 sid, bytes calldata metadataURI) external{\n        requireDoctusExistOrNot(did, true);\n        requireAuthorization(did, true);\n        requireServiceExistOrNot(did, sid, false);\n\n        ServiceModel memory service;\n        service.sid = sid;\n        service.metadataURI = metadataURI;\n        service.index = doctuses[did].serviceKeys.length;\n\n        doctuses[did].services[sid] = service;\n        doctuses[did].serviceKeys.push(sid);\n\n        emit ServiceCreated(did, sid, metadataURI);\n    }\n\n    function updateService(bytes32 did, bytes32 sid, bytes calldata metadataURI) external{\n        requireDoctusExistOrNot(did, true);\n        requireAuthorization(did, true);\n        requireServiceExistOrNot(did, sid, true);\n\n        doctuses[did].services[sid].metadataURI = metadataURI;\n\n        emit ServiveMetadataModified(did, sid, metadataURI);\n    }\n\n    function deleteServiceInternal(bytes32 did, bytes32 sid) internal {\n        uint indexToDelete = doctuses[did].services[sid].index;\n        bytes32 lastService = doctuses[did].serviceKeys[doctuses[did].serviceKeys.length - 1];\n\n        if (doctuses[did].serviceKeys[indexToDelete] != lastService){\n            doctuses[did].serviceKeys[indexToDelete] = lastService;\n            doctuses[did].services[lastService].index = indexToDelete;\n        }\n\n        doctuses[did].serviceKeys.pop();\n        delete doctuses[did].services[sid];\n    }\n\n    function deleteService(bytes32 did, bytes32 sid) external{\n        requireDoctusExistOrNot(did, true);\n        requireAuthorization(did, true);\n        requireServiceExistOrNot(did, sid, true);\n\n        deleteServiceInternal(did, sid);\n\n        emit ServiceDeleted(did, sid);\n    }\n\n    function listDoctuses() external view returns (bytes32[] memory dids){\n        return doctusKeys;\n    }\n\n    function getDoctusById(bytes32 did) external view \n      returns (bool found, bytes32 id, bytes memory metadataURI, address owner, address[] memory members, bytes32[] memory services){\n        if(doctuses[did].did == bytes32(0x0)){\n            found = false;\n        } else{\n            found = true;\n            id = doctuses[did].did;\n            metadataURI = doctuses[did].metadataURI;\n            owner = doctuses[did].owner;\n            members = doctuses[did].memberKeys;\n            services = doctuses[did].serviceKeys;\n        }\n    }\n\n    function getServicesForDoctus(bytes32 did) external view returns (bool found, bytes32[] memory services){\n        if(doctuses[did].did == bytes32(0x0)){\n            found = false;\n        } else{\n            found = true;\n            services = doctuses[did].serviceKeys;\n        }\n    }\n\n    function getServiceById(bytes32 did, bytes32 sid) external view returns (bool found, bytes32 id, bytes memory metadataURI){\n        if(doctuses[did].did == bytes32(0x0)){\n            found = false;\n        } else if (doctuses[did].services[sid].sid == bytes32(0x0)){\n            found = false;\n        }else{\n            found = true;\n            id = doctuses[did].services[sid].sid;\n            metadataURI = doctuses[did].services[sid].metadataURI;\n        }\n    }\n\n}",
  "sourcePath": "/home/nemo/Desktop/codes/truffle/doctrinaProject/contracts/Registry.sol",
  "compiler": {
    "name": "solc",
    "version": "0.8.21+commit.d9974bed.Emscripten.clang"
  },
  "schemaVersion": "3.4.16",
  "updatedAt": "2023-11-01T12:28:16.934Z",
  "networkType": "ethereum",
  "devdoc": {
    "kind": "dev",
    "methods": {
      "changeDoctusMetadataURI(bytes32,bytes)": {
        "details": "Updates the metadata for the Doctus      Only the owner can update the metadata ",
        "params": {
          "did": "ID of the Doctus",
          "metadataURI": "New metadata URI"
        }
      },
      "changeDoctusOwner(bytes32,address)": {
        "details": "Updates the owner of Doctus.       Only the owner can call this function. Reverts if the id is not found.",
        "params": {
          "did": "ID of the Doctus",
          "newOwner": "Address of the new owner"
        }
      },
      "createDoctus(bytes32,bytes,address[])": {
        "details": "Adds a new Doctus. Reverts if the given Doctus id (did) has already been registered.",
        "params": {
          "did": "id of the Doctus to create, must be unique.",
          "members": "Array of member addresses to seed the Doctus with.",
          "metadataURI": "MetadataURI of Doctus to create, must be unique."
        }
      },
      "createService(bytes32,bytes32,bytes)": {
        "details": "Create a new Service under the Doctus      Only the Doctus owner can create a new Service",
        "params": {
          "did": "ID of the doctus",
          "metadataURI": "URL for the Service Metadata",
          "sid": "Unique ID for the new Service"
        }
      },
      "deleteDoctus(bytes32)": {
        "details": "Deleted the Doctus       Only the owner can delete the Doctus",
        "params": {
          "did": "ID of the Doctus"
        }
      },
      "deleteService(bytes32,bytes32)": {
        "details": "Deletes the Service      Only the Doctus owner can delete the Service",
        "params": {
          "did": "ID of the Doctus",
          "sid": "ID of the Service"
        }
      },
      "getDoctusById(bytes32)": {
        "details": "Get the Doctus information by ID",
        "params": {
          "did": "ID of the Doctus"
        },
        "returns": {
          "found": "true if found, false if the ID is not found",
          "id": "ID of the Doctus",
          "members": "Array of IDs of the members",
          "metadataURI": "Metadata URI of teh Doctus",
          "owner": "Address of the owner",
          "services": " Array of Service ID under the Doctus"
        }
      },
      "getServiceById(bytes32,bytes32)": {
        "details": "Gets the service information by ID",
        "params": {
          "did": "ID of the Doctus",
          "sid": "ID of the Service"
        },
        "returns": {
          "found": "true if found false if not found",
          "id": "  ID of the Service if found",
          "metadataURI": "URl for the metadata location"
        }
      },
      "getServicesForDoctus(bytes32)": {
        "details": "Gets all services for the Doctus",
        "params": {
          "did": "ID of th Doctus"
        },
        "returns": {
          "found": "return true if found, false if not found",
          "services": "Array of Services for th Doctus"
        }
      },
      "listDoctuses()": {
        "details": "Gets the list of all Doctus in the registry ",
        "returns": {
          "dids": "Array of Doctus IDs"
        }
      },
      "removeDoctusMembers(bytes32,address[])": {
        "details": "Removes members from the Doctus      Only the owner can remove the members",
        "params": {
          "did": "ID of the Doctus",
          "members": "Array of members to be deleted"
        }
      },
      "supportsInterface(bytes4)": {
        "details": "Override function from ERC-165"
      },
      "updateService(bytes32,bytes32,bytes)": {
        "details": "Updates the Service      Only the Doctus owner can update the Service",
        "params": {
          "did": "ID of the doctus",
          "metadataURI": "New metadata URL",
          "sid": "Unique ID for the new Service"
        }
      }
    },
    "version": 1
  },
  "userdoc": {
    "kind": "user",
    "methods": {},
    "version": 1
  }
}